:020000040000FA
:04000000C5EF0AF04E
:10060000003F065B4F666D7D077F6F777C395E79B3
:100610007100010E0001E56F000EE46F000EE36F44
:10062000000EE16F000EE66F000EE76F000EE86F40
:10063000000EE96FEDEC09F0CAEC0BF0B3EC0BF037
:10064000F0EC0AF0CFEC0BF0270E426E100E416E6C
:1006500078EC0BF0B3EC07F00001E305D8A433EF1E
:1006600003F035EF03F0F2EF03F070EC08F0000E4A
:10067000576E600E456EEA0E466E000E476E000E17
:10068000486EE6C041F0E7C042F0E8C043F0E9C080
:1006900044F018EC09F041C04EF042C04FF043C0A6
:1006A00050F044C051F0060E526E000E536E000E14
:1006B000546E000E556E6AEC09F04E5099EC0AF03B
:1006C000010E576E700E456E170E466E000E476E89
:1006D000000E486EE6C041F0E7C042F0E8C043F0CB
:1006E000E9C044F018EC09F041C04EF042C04FF0B0
:1006F00043C050F044C051F00A0E526E000E536ECB
:10070000000E546E000E556E6AEC09F04E5099ECD6
:100710000AF0020E576EE80E456E030E466E000E8E
:10072000476E000E486EE6C041F0E7C042F0E8C0F8
:1007300043F0E9C044F018EC09F041C04EF042C06B
:100740004FF043C050F044C051F0060E526E000E00
:10075000536E000E546E000E556E6AEC09F04E504A
:1007600099EC0AF0030E576E640E456E000E466E4D
:10077000000E476E000E486EE6C041F0E7C042F042
:10078000E8C043F0E9C044F018EC09F041C04EF075
:1007900042C04FF043C050F044C051F00A0E526EB8
:1007A000000E536E000E546E000E556E6AEC09F08A
:1007B0004E5099EC0AF00001E607000EE75BE85B9B
:1007C000E95BE651E711E811E911D8A4EAEF03F07B
:1007D000ECEF03F0F2EF03F0000E63EC0AF0000E12
:1007E0000001E36FC5EC0BF00001E251596E5A6A4B
:1007F0004150591809E142505A18D8B402EF04F098
:1008000004EF04F05FEF05F0C5EC0BF04150000180
:10081000E26FC5EC0BF041500001EA6FEAA713EF5D
:1008200004F015EF04F031EF04F0E4B11AEF04F036
:100830001CEF04F024EF04F0200E63EC0AF0010E2C
:100840000001E56F30EF04F0E4A129EF04F02BEF95
:1008500004F030EF04F0000E63EC0AF01FEF04F038
:10086000E42BEAAF36EF04F038EF04F075EF04F054
:10087000E505D8A43EEF04F040EF04F04CEF04F09F
:10088000010EE46F000E63EC0AF0200E63EC0AF038
:100890000001E52B75EF04F0020EE519D8A453EF23
:1008A00004F055EF04F05FEF04F0010EE46F000E6A
:1008B00063EC0AF0400E63EC0AF048EF04F0030E1C
:1008C000E519D8A466EF04F068EF04F075EF04F0C2
:1008D000010EE46F000E63EC0AF0600E63EC0AF0A8
:1008E000010E0001E56F75EF04F0EAAD7AEF04F058
:1008F0007CEF04F086EF04F0010EE36F300EE66F3C
:10090000750EE76F000EE86F000EE96FEAAB8BEF34
:1009100004F08DEF04F097EF04F0010EE36F600E2A
:10092000E66FEA0EE76F000EE86F000EE96FEAA9C6
:100930009CEF04F09EEF04F0A8EF04F0010EE36FCB
:10094000200EE66FBF0EE76F020EE86F000EE96F34
:10095000EAA5ADEF04F0AFEF04F0E5EF04F0010E0F
:10096000AEEC09F020EE21F010EE80F01F0EDBCF90
:10097000E3FFE806FCE2000E0001EB6F800EEB25C2
:10098000D96EDA6A000EDA220A0EDE18D8A4CBEF8E
:1009900004F0CDEF04F0D2EF04F0C00EAEEC09F09D
:1009A000DBEF04F0800EEB25D96EDA6A000EDA2256
:1009B000DF501BEC0BF00001EB2B1F0EEB65E3EFA0
:1009C00004F0E5EF04F0BEEF04F0EAA3EAEF04F070
:1009D000ECEF04F022EF05F0010EAEEC09F020EE92
:1009E00001F010EEA0F01F0EDBCFE3FFE806FCE203
:1009F000000E0001EB6FA00EEB25D96EDA6A000E37
:100A0000DA220A0EDE18D8A408EF05F00AEF05F086
:100A10000FEF05F0C00EAEEC09F018EF05F0A00ED8
:100A2000EB25D96EDA6A000EDA22DF501BEC0BF0F0
:100A30000001EB2B1F0EEB6520EF05F022EF05F018
:100A4000FBEF04F0EAA127EF05F029EF05F05FEFD7
:100A500005F0010EAEEC09F021EE00F010EEC0F052
:100A60001F0EDBCFE3FFE806FCE2000E0001EB6F98
:100A7000C00EEB25D96EDA6A000EDA220A0EDE18F5
:100A8000D8A445EF05F047EF05F04CEF05F0C00E98
:100A9000AEEC09F055EF05F0C00EEB25D96EDA6A21
:100AA000000EDA22DF501BEC0BF00001EB2B1F0EC7
:100AB000EB655DEF05F05FEF05F038EF05F0BDEC9D
:100AC0000BF024EF03F000EF00F042BE73EF05F0EF
:100AD000425007E1080E415CD8B071EF05F073EFAA
:100AE00005F09DEF05F043504410D8B47AEF05F0BF
:100AF0007CEF05F08CEF05F041C045F0010E466E2D
:100B0000452A85EF05F0D8904636452E83EF05F04F
:100B1000465092128BEF06F041C045F0010E466E32
:100B2000452A95EF05F0D8904636452E93EF05F00F
:100B30004650FF0A92168BEF06F042BEABEF05F06F
:100B4000425007E1100E415CD8B0A9EF05F0ABEFC1
:100B500005F0D9EF05F043504410D8B4B2EF05F0DA
:100B6000B4EF05F0C6EF05F041C045F0F80E45269C
:100B7000010E466E452ABFEF05F0D8904636452E49
:100B8000BDEF05F0465093128BEF06F041C045F0E3
:100B9000F80E4526010E466E452AD1EF05F0D89095
:100BA0004636452ECFEF05F04650FF0A93168BEFE1
:100BB00006F042BEE7EF05F0425007E1180E415C37
:100BC000D8B0E5EF05F0E7EF05F015EF06F043507C
:100BD0004410D8B4EEEF05F0F0EF05F002EF06F0A8
:100BE00041C045F0F00E4526010E466E452AFBEF4A
:100BF00005F0D8904636452EF9EF05F04650941290
:100C00008BEF06F041C045F0F00E4526010E466E12
:100C1000452A0DEF06F0D8904636452E0BEF06F02C
:100C20004650FF0A94168BEF06F042BE23EF06F003
:100C3000425007E1200E415CD8B021EF06F023EFCF
:100C400006F051EF06F043504410D8B42AEF06F0F6
:100C50002CEF06F03EEF06F041C045F0E80E4526C9
:100C6000010E466E452A37EF06F0D8904636452EDF
:100C700035EF06F0465095128BEF06F041C045F077
:100C8000E80E4526010E466E452A49EF06F0D8903B
:100C90004636452E47EF06F04650FF0A95168BEF75
:100CA00006F042BE5FEF06F0425007E1280E415CBD
:100CB000D8B05DEF06F05FEF06F08BEF06F0435023
:100CC0004410D8B466EF06F068EF06F07AEF06F04D
:100CD00041C045F0E00E4526010E466E452A73EFF1
:100CE00006F0D8904636452E71EF06F04650961223
:100CF0008BEF06F041C045F0E00E4526010E466E32
:100D0000452A85EF06F0D8904636452E83EF06F04B
:100D10004650FF0A9616120042BE9AEF06F0425065
:100D200007E1080E415CD8B098EF06F09AEF06F0A4
:100D3000C4EF06F043504410D8B4A1EF06F0A3EF7F
:100D400006F0B3EF06F041C045F0010E466E452AAD
:100D5000ACEF06F0D8904636452EAAEF06F0465086
:100D60008012B2EF07F041C045F0010E466E452AF1
:100D7000BCEF06F0D8904636452EBAEF06F0465046
:100D8000FF0A8016B2EF07F042BED2EF06F04250E3
:100D900007E1100E415CD8B0D0EF06F0D2EF06F0BC
:100DA00000EF07F0F80E4126FF0E42224350441098
:100DB000D8B4DDEF06F0DFEF06F0EFEF06F041C04C
:100DC00045F0010E466E452AE8EF06F0D89046360B
:100DD000452EE6EF06F046508112B2EF07F041C013
:100DE00045F0010E466E452AF8EF06F0D8904636DB
:100DF000452EF6EF06F04650FF0A8116B2EF07F0D7
:100E000042BE0EEF07F0425007E1180E415CD8B029
:100E10000CEF07F00EEF07F03CEF07F0F00E412665
:100E2000FF0E422243504410D8B419EF07F01BEFD5
:100E300007F02BEF07F041C045F0010E466E452A42
:100E400024EF07F0D8904636452E22EF07F04650A3
:100E50008212B2EF07F041C045F0010E466E452AFE
:100E600034EF07F0D8904636452E32EF07F0465063
:100E7000FF0A8216B2EF07F042BE4AEF07F0425077
:100E800007E1200E415CD8B048EF07F04AEF07F0C9
:100E900078EF07F0E80E4126FF0E4222435044103F
:100EA000D8B455EF07F057EF07F067EF07F041C0F0
:100EB00045F0010E466E452A60EF07F0D8904636A1
:100EC000452E5EEF07F046508312B2EF07F041C0A7
:100ED00045F0010E466E452A70EF07F0D890463671
:100EE000452E6EEF07F04650FF0A8316B2EF07F06B
:100EF00042BE86EF07F0425007E1280E415CD8B0B1
:100F000084EF07F086EF07F0B2EF07F0E00E41261E
:100F1000FF0E422243504410D8B491EF07F093EFF4
:100F200007F0A3EF07F041C045F0010E466E452AD9
:100F30009CEF07F0D8904636452E9AEF07F04650C2
:100F40008412B2EF07F041C045F0010E466E452A0B
:100F5000ACEF07F0D8904636452EAAEF07F0465082
:100F6000FF0A8416120083CF46F00F0E9512000E72
:100F70004A6EF80E93164AC041F0010E426E412AA5
:100F8000C4EF07F0D8904236412EC2EF07F042502E
:100F90009312070E81124AC041F0010E426E412A9F
:100FA000D4EF07F0D8904236412ED2EF07F04250EE
:100FB000FF0A8116000E486E000E476E474A482A07
:100FC00048BEECEF07F0485009E10A0E475CD8A094
:100FD000ECEF07F0EEEF07F0DEEF07F0000E496EE2
:100FE00049C041F0010E426E412AF9EF07F0D89056
:100FF0004236412EF7EF07F0425083140009D8A47F
:1010000004EF08F006EF08F01EEF08F04A50040D58
:10101000F3504924416E010E426E000E436E412A88
:1010200015EF08F0D89042364336412E12EF08F003
:1010300042505D1243505E1238EF08F04A50040DE2
:10104000F3504924416E010E426E000E436E412A58
:101050002DEF08F0D89042364336412E2AEF08F0A3
:10106000421C446E431C456E44505D1645505E164E
:10107000492A030E49643FEF08F041EF08F0F0EF12
:1010800007F04A2A020E4A6448EF08F04AEF08F0D7
:10109000B9EF07F05D505B1807E15E505C18D8A40B
:1010A00054EF08F056EF08F059EF08F066065FEFCE
:1010B00008F00A0E666E5DC05BF05EC05CF06650C4
:1010C000D8A465EF08F067EF08F06BEF08F05BC09D
:1010D0005FF05CC060F046C083FF000E956E1200AA
:1010E000000E956E000E426E020E416E000E446EB2
:1010F000000E436E8CEC06F0000E426E030E416E45
:10110000000E446E000E436E8CEC06F0000E426E34
:10111000040E416E000E446E000E436E8CEC06F021
:10112000000E426E050E416E000E446E000E436EC0
:101130008CEC06F0000E836EFAEF08F0010E6424CA
:10114000F66EF76A060EF7220800F5CF83FF000E51
:10115000426E020E416E000E446E010E436E8CEC28
:1011600006F0010E656E17EF09F0010E6324F66EAE
:10117000F76A060EF7220800F5CF83FF000E426ED5
:10118000030E416E000E446E010E436E8CEC06F0B1
:10119000020E656E17EF09F0010E6224F66EF76A13
:1011A000060EF7220800F5CF83FF000E426E040EF4
:1011B000416E000E446E010E436E8CEC06F0030E81
:1011C000656E17EF09F0010E6124F66EF76A060EE0
:1011D000F7220800F5CF83FF000E426E050E416E28
:1011E000000E446E010E436E8CEC06F0000E656E30
:1011F00017EF09F06550476E486A4850000AD8B4A6
:1012000004EF09F0F6EF08F04750000AD8B49EEF5B
:1012100008F0010AD8B4B5EF08F0030AD8B4CCEF4F
:1012200008F0010AD8B4E3EF08F0F6EF08F0120076
:10123000000E496E000E4A6E000E4B6E000E4C6E94
:101240004550461047104810D8B429EF09F02BEF4D
:1012500009F061EF09F0010E4D6E35EF09F0D890FD
:1012600045364636473648364D2A48AE3AEF09F0FD
:101270003CEF09F02FEF09F0D89049364A364B364B
:101280004C364550415C46504258475043584850B0
:101290004458D8A04EEF09F050EF09F059EF09F08B
:1012A0004550415E4650425A4750435A4850445A6E
:1012B0004980D89048324732463245324D2E3CEF75
:1012C00009F049C041F04AC042F04BC043F04CC065
:1012D00044F012005250531054105510D8B473EF0C
:1012E00009F075EF09F0A5EF09F0010E566E7FEFDA
:1012F00009F0D8905236533654365536562A55AEE4
:1013000084EF09F086EF09F079EF09F052504E5C56
:1013100053504F585450505855505158D8A093EFEF
:1013200009F095EF09F09DEF09F052504E5E5350D1
:101330004F5A5450505A5550515AD89055325432F1
:1013400053325232562E86EF09F04EC04EF04FC047
:101350004FF050C050F051C051F01200486E83CF92
:1013600047F0000E956E000E426E220E416E000E8A
:10137000446E000E436E8CEC06F048C083FF000EF6
:10138000426E210E416E000E446E010E436E8CECD7
:1013900006F0000E426E210E416E000E446E000EED
:1013A000436E8CEC06F047C083FF020E4818D8B499
:1013B000DCEF09F0DEEF09F0E6EF09F04804D8A40D
:1013C000E4EF09F0E6EF09F0EAEF09F099EC0BF031
:1013D000ECEF09F0A7EC0BF01200000E426E220EAB
:1013E000416E000E446E000E436E65EC05F0000E7B
:1013F000426E210E416E000E446E000E436E65EC8F
:1014000005F0000E956E99EC0BF099EC0BF099EC51
:101410000BF099EC0BF099EC0BF0380EAEEC09F0F8
:1014200099EC0BF099EC0BF0380EAEEC09F099EC5E
:101430000BF0380EAEEC09F0380EAEEC09F0060EEB
:10144000AEEC09F00C0EAEEC09F0010EAEEC09F0BA
:101450001200000E466E000E456E43504410D8B484
:1014600034EF0AF036EF0AF05EEF0AF0010E476E35
:101470003EEF0AF0D89043364436472A44AE43EF55
:101480000AF045EF0AF03AEF0AF0D89045364636B2
:101490004350415C44504258D8A051EF0AF053EFFA
:1014A0000AF058EF0AF04350415E4450425A4580DA
:1014B000D89044324332472E45EF0AF045C041F000
:1014C00046C042F012004A6E010ECB24416E426AC1
:1014D000000E42224AC043F0446A65EC0BF041C062
:1014E0004BF042C04CF04BC041F04CC042F0000EFB
:1014F000446E190E436E29EC0AF041C04BF042C015
:101500004CF0FF0E4B16030E4C164BC048F04CC06F
:1015100049F0D89049324832D89049324832485040
:10152000BE6E4BC048F0030E48164838F00BBD1293
:101530001200586E5750D8A4A0EF0AF0A2EF0AF09C
:10154000A4EF0AF058C064F05704D8A4AAEF0AF038
:10155000ACEF0AF0AEEF0AF058C063F0020E571875
:10156000D8A4B5EF0AF0B7EF0AF0B9EF0AF058C007
:1015700062F0030E5718D8A4C0EF0AF0C2EF0AF0C9
:10158000C4EF0AF058C061F01200120EF66E170E8A
:10159000F76E000EF86E01EE00F010EE20F009007C
:1015A000F5CFEEFFE550E150FAE18A0EF66E160E29
:1015B000F76E000EF86E00EE01F010EE40F009003C
:1015C000F5CFEEFFE550E150FAE100EE5BF00C0ED6
:1015D000EE6AE806FDE1000EF86E000109EF03F087
:1015E000000E426E020E416E000E446E000E436EFF
:1015F00065EC05F0000E426E030E416E000E446E67
:10160000000E436E65EC05F0000E426E040E416E56
:10161000000E446E000E436E65EC05F0000E426E47
:10162000050E416E000E446E000E436E65EC05F033
:10163000000E956E1200476E83CF48F0000E956E37
:10164000000E426E220E416E000E446E010E436E7D
:101650008CEC06F047C083FF000E426E210E416EF7
:10166000000E446E010E436E8CEC06F0000E426ECE
:10167000210E416E000E446E000E436E8CEC06F09F
:1016800048C083FFA7EC0BF01200352D54696D653F
:10169000722035206D696E0A382D54696D6572208F
:1016A0003130206D696E00000000312D56656E747A
:1016B0002E204F4E2F4F46460A322D4D75646172D3
:1016C0002056656C6F632E00000041504302F3CF3B
:1016D00045F0F4CF46F041504402F35046264250C4
:1016E0004302F350462645C041F046C042F0120086
:1016F000D8904134436E4234446E431E441E0E0E55
:10170000435E000E445A4450D76E43C0D6FFF29455
:101710001200302D54696D6572203330206D696E72
:1017200000000000000000000000000000000000B9
:101730000000000E426EA7EC0BF0422A310E42640C
:10174000A4EF0BF0A6EF0BF09BEF0BF01200000ED6
:10175000416E412A180E4164B0EF0BF0B2EF0BF06E
:10176000A9EF0BF0120094929494030ECA12CA844B
:101770000C0EBD120C0EBA121200F2A4C2EF0BF046
:10178000C4EF0BF0BDEF0BF012005FC041F060C082
:1017900042F01200070E93160F0E95121200080E5B
:0617A000D56ED58E12008B
:020000040020DA
:08000000FFFFFFFFFFFFFFFF00
:020000040030CA
:0E000000FF027100FF8380FF0FC00FE00F4072
:00000001FF
